S00D000054493442322E73726563D2
S113000045C0000053C0000051C000004FC00000B4
S11300104DC000004BC0000049C0000047C00000B4
S113002045C0000043C0000041C000003FC00000C4
S11300303DC000003BC0000039C0000037C00000D4
S113004035C0000033C0000031C000002FC00000E4
S11300502DC000002BC0000029C0000027C00000F4
S113006025C0000023C0000021C000001FC0000004
S11300701DC000001BC0000019C0000017C0000014
S113008015C0000013C0000011C0000011241FBEE1
S1130090CFEFD0E1DEBFCDBF21E0A0E0B1E001C0F1
S11300A01D92A030B207E1F720D067C0A9CF18167F
S11300B019066CF420E030E0E9EFF0E03197F1F755
S11300C000C000002F5F3F4F28173907A9F7089594
S11300D01BBC1ABC19BC18BC109279001092780091
S11300E089EA8FBD8BE08EBD08958FEF87BBF0DF6B
S11300F084E690E0DCDF8FEF90E099BD88BD9BBD86
S11301008ABD9093790080937800EE24EA94F12CD0
S113011008E710E0CE2DDF2D8C2F809590E099BD5F
S113012088BDCE0199279BBD8ABD84E690E0BFDFE0
S1130130219790F7CE2DDF2D8C2F809590E09BBDDD
S11301408ABDCE019927F8019183808384E690E0EB
S1130150AEDF219788F7CE2DDF2D8C2F809590E090
S1130160F80191838083CE01992799BD88BD84E6E7
S111017090E09DDF219788F7CDCFF894FFCF64
S9030000FC
