:1000000045C0000053C0000051C000004FC00000B8
:100010004DC000004BC0000049C0000047C00000B8
:1000200045C0000043C0000041C000003FC00000C8
:100030003DC000003BC0000039C0000037C00000D8
:1000400035C0000033C0000031C000002FC00000E8
:100050002DC000002BC0000029C0000027C00000F8
:1000600025C0000023C0000021C000001FC0000008
:100070001DC000001BC0000019C0000017C0000018
:1000800015C0000013C0000011C0000011241FBEE5
:10009000CFEFD0E1DEBFCDBF21E0A0E0B1E001C0F5
:1000A0001D92A130B207E1F713D045C0A9CF1816B1
:1000B00019066CF420E030E0E9EFF0E03197F1F759
:1000C00000C000002F5F3F4F28173907A9F7089598
:1000D0008FEF87BB8ABB18D020D082E390E0E7DFA8
:1000E00088B3805888BB23D0809300018BBB80915C
:1000F00000019FE9980F9A3118F480528093000113
:10010000809100010ED0E9CF1092900083E389B96D
:1001100086E0809395001AB808958AB188618AB9FB
:1001200008955D9BFECF8CB980E090E008955F9BC1
:0A013000FECF8CB10895F894FFCFC4
:00000001FF
