S00D000054493342322E73726563D3
S113000045C0000053C0000051C000004FC00000B4
S11300104DC00000DEC0000011C1000047C0000058
S113002045C0000043C0000041C000003FC00000C4
S11300303DC000003BC0000039C0000037C00000D4
S113004035C0000033C0000031C000002FC00000E4
S11300502DC000002BC0000029C0000027C00000F4
S113006025C0000023C0000021C000001FC0000004
S11300701DC000001BC0000019C0000017C0000014
S113008015C0000013C0000011C0000011241FBEE1
S1130090CFEFD0E1DEBFCDBF21E0A0E0B1E001C0F1
S11300A01D92A230B207E1F7FED00DC1A9CF982F5F
S11300B0907F95BBAB9AE9EFF0E03197F1F700C080
S11300C0000094E095BBF0E18F9FC001112485BB33
S11300D0AB9A89EF90E00197F1F700C0000015BAE0
S11300E00895982F907F95BB95B39C6095BBE9EFDD
S11300F0F0E03197F1F700C0000094E095BBF0E127
S11301008F9FC001112485BB85B38C6085BB89EFAB
S113011090E00197F1F700C0000015BAE5EAFEE0AF
S11301203197F1F700C00000089581E0C0DF85EA4F
S11301309EE00197F1F700C0000008952FE788E3DF
S113014091E0215080409040E1F700C0000082E03F
S1130150AEDF85EA9EE00197F1F700C0000088E277
S1130160A6DF85EA9EE00197F1F700C000008CE06D
S11301709EDF85EA9EE00197F1F700C0000086E06B
S113018096DF85EA9EE00197F1F700C0000080E861
S11301908EDF85EA9EE00197F1F700C0000081E060
S11301A086DF87EA91E60197F1F700C00000089521
S11301B0181619066CF420E030E0E9EFF0E031970E
S11301C0F1F700C000002F5F3F4F28173907A9F748
S11301D008951F920F920FB60F9211240BB60F922F
S11301E02F933F934F935F936F937F938F939F933B
S11301F0AF93BF93EF93FF9398DF809100019091A9
S1130200010101979093010180930001805D69DFF2
S113021084E690E0CDDFFF91EF91BF91AF919F9184
S11302208F917F916F915F914F913F912F910F909B
S11302300BBE0F900FBE0F901F9018951F920F9238
S11302400FB60F9211240BB60F922F933F934F9337
S11302505F936F937F938F939F93AF93BF93EF932A
S1130260FF9363DF809100019091010101969093C7
S1130270010180930001805D34DF84E690E098DF23
S1130280FF91EF91BF91AF919F918F917F916F916A
S11302905F914F913F912F910F900BBE0F900FBE26
S11302A00F901F90189510920101109200018FEF8A
S11302B084BB12B88AB78A608ABF89B7806389BF52
S10D02C078943CDFFFCFF894FFCFE1
S9030000FC
