:1000000045C0000058C0000056C0000054C00000A9
:1000100052C0000050C000004EC000004CC00000A4
:100020004AC0000048C0000046C0000044C00000B4
:1000300042C0000040C000003EC000003CC00000C4
:100040003AC0000038C0000036C0000034C00000D4
:1000500032C0000030C000002EC000002CC00000E4
:100060002AC0000028C0000026C0000024C00000F4
:1000700022C0000020C000001EC000001CC0000004
:100080001AC0000018C0000016C0000011241FBED6
:10009000CFEFD0E1DEBFCDBF11E0A0E0B1E0E8E3FB
:1000A000F2E000E00BBF02C007900D92A831B1074B
:1000B000D9F79AD0BFC0A4CF982F907F95BBAB9AA9
:1000C000E9EFF0E03197F1F700C0000094E095BB54
:1000D000F0E18F9FC001112485BBAB9A89EF90E0BE
:1000E0000197F1F700C0000015BA0895982F907F8E
:1000F00095BB95B39C6095BBE9EFF0E03197F1F7C4
:1001000000C0000094E095BBF0E18F9FC001112476
:1001100085BB85B38C6085BB89EF90E00197F1F7D3
:1001200000C0000015BAE5EAFEE03197F1F700C023
:10013000000008958130910539F08230910531F049
:10014000892B31F480E8B8DF80E8B6DF80ECB4DFDB
:1001500080E8B2CF08950F931F93CF93DF938C0164
:10016000CB01E8DFE801005F1F4F8991BFDFC017B7
:10017000D107D9F7DF91CF911F910F91089588E1B1
:100180009BCF08952FE788E391E021508040904075
:10019000E1F700C0000082E08FDF85EA9EE0019772
:1001A000F1F700C0000088E287DF85EA9EE0019752
:1001B000F1F700C000008CE07FDF85EA9EE0019748
:1001C000F1F700C0000086E077DF85EA9EE0019746
:1001D000F1F700C0000080E86FDF87EA91E6019741
:1001E000F1F700C000000895CF93DF93CDB7DEB7DD
:1001F00068970FB6F894DEBF0FBECDBF8FEF84BBFC
:1002000088E1E0E0F1E0DE01119601900D928A951F
:10021000E1F7B8DF60E070E0CE0101969CDFAFDF70
:100220002FEB87E299E0215080409040E1F700C039
:080230000000F5CFF894FFCFA8
:100238005468697320697320612073616D706C65FF
:0802480020737472696E6700F7
:00000001FF
