S013000045696E6470726F6A6563742E737265639A
S1130000D9C00000F4C00000F2C00000F0C000003D
S1130010EEC00000ECC00000EAC00000E8C0000030
S1130020E6C00000E4C00000E2C00000E0C0000040
S1130030DEC00000DCC00000DAC00000D8C0000050
S1130040D6C00000D4C00000D2C00000D0C0000060
S1130050CEC00000CCC00000CAC00000C8C0000070
S1130060C6C00000C4C00000C2C00000C0C0000080
S1130070BEC00000BCC00000BAC00000B8C0000090
S1130080B6C00000B4C00000B2C00000084AD73BAC
S11300903BCE016E84BCBFFDC12F3D6C74319ABD53
S11300A056833DDA3D00C77F11BED9E4BB4C3E9177
S11300B06BAAAABE000000803F0000407A10F35AE9
S11300C000A0724E18090010A5D4E80000E8764894
S11300D0170000E40B54020000CA9A3B000000E140
S11300E0F505000080969800000040420F000000D3
S11300F0A08601000000102700000000E8030000B3
S113010000006400000000000A000000000001007C
S1130110000000002C76D888DC674F0823DFC1DF9D
S1130120AE59E1B1B796E5E3E453C63AE6519976A0
S113013096E8E6C28426EB898C9B62ED407C6FFCDA
S1130140EFBC9C9F40F2BAA56FA5F490055A2AF71C
S11301505C936B6CF9676DC11BFCE0E40D47FEF525
S113016020E6B500D0ED902E03009435770500808D
S1130170841E080000204E0A000000C80C333333EC
S1130180330F986E12831141EF8D2114893BE6558C
S113019016CFFEE6DB18D1844B381BF77C1D901D6F
S11301A0A4BBE424203284725E228100C9F124ECD1
S11301B0A1E53D2711241FBECFEFD0E1DEBFCDBFA7
S11301C011E0A0E0B1E0ECEDFEE000E00BBF02C006
S11301D007900D92A830B107D9F721E0A8E0B1E06B
S11301E001C01D92A831B207E1F702D175C608CF4C
S11301F088E4809370000895E4E7F0E0108294EAC4
S1130200908390819923ECF790917100987F9830B6
S1130210A1F48093730084E880937400E4E7F0E031
S113022080818823ECF790917100987F983139F0A0
S113023081E0903429F480E0089581E0089580E01D
S113024008958093730084E880937400E4E7F0E0F9
S113025080818823ECF790917100987F81E0983237
S113026009F480E0089584EC80937400E4E7F0E0FE
S113027080818823ECF780917300089584E880934B
S11302807400E4E7F0E080818823ECF78091730048
S1130290089584E980937400089501979C0140E0D7
S11302A050E060E472E48FE090E03DD3832F99271F
S11302B08093900029B98AB188698AB9E5E9F0E0A8
S11302C080818E60808308955D9BFECF8CB90895F4
S11302D0CF93DF93EC018881882329F02196F4DF02
S11302E089918111FCCFDF91CF9108958CE384DF54
S11302F080E0A7DF80E7A5DFCCDF8CE37DDF81E052
S1130300A0DF80EA9EDFC5DF8CE376DF82E099DF41
S113031080E097DFBECF0895CF92DF92EF92FF92F5
S11303208CE36ADF83E08DDFB4DF8DE365DF9BDF81
S1130330109210018093110196DF209110013091E9
S11303401101282B30931101209310018CDF10929E
S11303500C0180930D0187DF20910C0130910D0178
S1130360282B30930D0120930C017DDF10920E0198
S113037080930F0183DF20910E0130910F01282B10
S113038030930F0120930E0184DF6091100170916E
S11303901101072E000C880B990BA7D16B017C016E
S11303A080910E0190910F01BC01990F880B990B5C
S11303B09CD1A7019601DCD020E030E044E353E473
S11303C04CD22BED3FE049E450E425D120E030E06D
S11303D044E353E45AD06093080170930901809375
S11303E00A0190930B01FF90EF90DF90CF90089556
S11303F080E091EE52DFFCDE79DF8EDF4AE062E1DD
S113040071E08091100190911101CED282E191E0CE
S11304105FDF80E091E05CDF4AE062E171E08091BF
S11304200E0190910F01C0D282E191E051DF80E092
S113043091E04EDF4AE062E171E080910C0190911D
S11304400D01B2D282E191E043DF80E091E040DF30
S1130450609108017091090180910A0190910B014A
S113046002E111E022E046E080D2C80131DF83E0FE
S113047091E02EDF2FEF83ED90E3215080409040F8
S1130480E1F700C00000B9CF5058BB27AA270ED00F
S1130490A3C194D130F099D120F031F49F3F11F4ED
S11304A01EF464C10EF4E095E7FB5AC1E92FA5D10F
S11304B080F3BA17620773078407950718F071F47D
S11304C09EF5BDC10EF4E0950B2EBA2FA02D0B01A5
S11304D0B90190010C01CA01A0011124FF27591B85
S11304E099F0593F50F4503E68F11A16F040A22F8B
S11304F0232F342F4427585FF3CF469537952795FC
S1130500A795F0405395C9F77EF41F16BA0B620BFA
S1130510730B840BBAF09150A1F0FF0FBB1F661F41
S1130520771F881FC2F70EC0BA0F621F731F841F84
S113053048F4879577956795B795F7959E3F08F0AA
S1130540B3CF9395880F08F09927EE0F9795879569
S1130550089534D158F080E891E009F49EEF35D144
S113056028F040E851E059F45EEF09C0FFC067C1CC
S1130570E92FE07842D168F3092E052AC1F3261742
S113058037074807590738F00E2E07F8E02569F0B9
S1130590E025E0640AC0EF6307F8009407FADB0182
S11305A0B9019D01DC01CA01AD01EF9343D014D11F
S11305B00AD05F91552331F02BED3FE049E450FD23
S11305C049EC63CF0895DF93DD27B92FBF7740E867
S11305D05FE31616170648075B0710F4D92F36D1C8
S11305E09F938F937F936F939BD1ECE8F0E0C1D0FE
S11305F0F3D02F913F914F915F913BD1DD2349F08F
S11306009058A2EA2AED3FE049EC5FE3D0785D27F9
S11306104DDFDF91E1C00CD0DFC0D7D040F0CED0A9
S113062030F021F45F3F19F09BC0511109C19EC005
S1130630E4D098F39923C9F35523B1F3951B550BD3
S1130640BB27AA2762177307840738F09F5F5F4FA1
S1130650220F331F441FAA1FA9F333D00E2E3AF0E2
S1130660E0E830D091505040E695001CCAF729D0FC
S1130670FE2F27D0660F771F881FBB1F261737074B
S11306804807AB07B0E809F0BB0B802DBF01FF277B
S113069093585F4F2AF09E3F510568F061C0D0C067
S11306A05F3FECF3983EDCF3869577956795B795B5
S11306B0F7959F5FC9F7880F911D9695879597F9D0
S11306C00895E1E0660F771F881FBB1F6217730749
S11306D08407BA0720F0621B730B840BBA0BEE1F5E
S11306E088F7E0950895E89409C097FB3EF4909547
S11306F08095709561957F4F8F4F9F4F9923A9F0F7
S1130700F92F96E9BB279395F69587957795679585
S1130710B795F111F8CFFAF4BB0F11F460FF1BC0C9
S11307206F5F7F4F8F4F9F4F16C0882311F096E95C
S113073011C0772321F09EE8872F762F05C066230A
S113074071F096E8862F70E060E02AF09A95660FC3
S1130750771F881FDAF7880F9695879597F908957C
S113076097F99F6780E870E060E008959FEF80EC60
S11307700895DF93CF931F930F93FF92EF92DF922D
S11307807B018C01689405C0DA2EEF0172D0FE0162
S1130790E894A5912591359145915591AEF3EF01DA
S11307A085DEFE019701A801DA9479F7DF90EF90D6
S11307B0FF900F911F91CF91DF91089500240A9427
S11307C01616170618060906089500240A94121628
S11307D01306140605060895092E0394000C11F45B
S11307E0882352F0BB0F40F4BF2B11F460FF04C008
S11307F06F5F7F4F8F4F9F4F089557FD9058440F61
S1130800551F59F05F3F71F04795880F97FB991F6B
S113081061F09F3F79F08795089512161306140628
S1130820551FF2CF4695F1DF08C0161617061806B5
S1130830991FF1CF86957105610508940895E89490
S1130840BB2766277727CB0197F908959B01AC0155
S113085060E070E080E89FE3DECE0BD0BDCFAEDF7A
S113086028F0B3DF18F0952309F07ACF7FCF112455
S1130870E7CFC3DFA0F3959FD1F3950F50E0551F49
S1130880629FF001729FBB27F00DB11D639FAA27E1
S1130890F00DB11DAA1F649F6627B00DA11D661F30
S11308A0829F2227B00DA11D621F739FB00DA11D51
S11308B0621F839FA00D611D221F749F3327A00D0B
S11308C0611D231F849F600D211D822F762F6A2FA7
S11308D011249F5750408AF0E1F088234AF0EE0F2C
S11308E0FF1FBB1F661F771F881F91505040A9F739
S11308F09E3F510570F034CFA3CF5F3FECF3983E99
S1130900DCF3869577956795B795F795E7959F5F9F
S1130910C1F7FE2B880F911D9695879597F9089539
S11309209B01AC019ACFA1E21A2EAA1BBB1BFD01AD
S11309300DC0AA1FBB1FEE1FFF1FA217B307E407BA
S1130940F50720F0A21BB30BE40BF50B661F771F12
S1130950881F991F1A9469F76095709580959095F2
S11309609B01AC01BD01CF010895EF920F931F933A
S1130970CF93DF93E80147FD02C034E001C034E1C6
S1130980E42F440FFF0BF7FF03C0F195E195F10944
S1130990E32E022F2E2FAE012AD0CE01DF91CF916C
S11309A01F910F91EF900895BB274A3031F499239A
S11309B022F4BDE2909581959F4F01C0BB27FB01B6
S11309C05527AA27880F991FAA1FA41710F0A41B44
S11309D083955051B9F7A05DAA3308F0A95DA1939E
S11309E0009779F7B111B1931192CB0165C24F927F
S11309F05F926F927F929F92AF92BF92CF92DF925B
S1130A00EF92FF920F931F93CF93DF93CDB7DEB78F
S1130A1029970FB6F894DEBF0FBECDBF6A01122F1F
S1130A20B02E2BE3201720F0FF24F394F00E02C025
S1130A30BCE3FB2E0F2D27E0AE014F5F5F4F64D167
S1130A40AC018981982F9970913031F0E1FC06C096
S1130A50E0FE06C090E205C09DE203C09BE201C037
S1130A6090E0EE2DE07183FF3CC0911102C083E061
S1130A7001C084E0811718F4212F281B01C020E055
S1130A80E1110BC0F601822F30E2882319F0319373
S1130A908150FBCFC20ED11C20E0992329F0D6014E
S1130AA09C93F60131966F01C6010396E2FE0AC0DB
S1130AB03EE4D6013C9341E411964C93119712966F
S1130AC03C9306C03EE6F601308341E6418332831F
S1130AD0FC01322F40E2332309F442C041933150E8
S1130AE0FACF82FF44C0911102C083E001C084E0C8
S1130AF0811718F4212F281B01C020E0E1110BC03D
S1130B00F601822F30E2882319F031938150FBCF14
S1130B10C20ED11C20E0992329F0D6019C93F60142
S1130B2031966F01C6010396E2FE0BC039E4D6018B
S1130B303C933EE411963C93119736E412963C9311
S1130B4007C039E6F60130833EE6318336E6328368
S1130B50FC01322F40E2332319F041933150FBCF93
S1130B60FC01E20FF11D10828EEF9FEFB7C0F1E0A0
S1130B70911101C0F0E06F2F70E01416150624F4F3
S1130B809A012F5F3F4F02C021E030E0260F371F4C
S1130B90BB2029F06B2D70E06F5F7F4F02C060E0D7
S1130BA070E0260F371F612F70E0261737071CF4FB
S1130BB0121B212F01C020E03E2D387159F4D601BB
S1130BC0322F60E2332319F06D933150FBCFC20E04
S1130BD0D11C20E0FF2331F0D6019C93B6016F5F56
S1130BE07F4F6B01E1110BC0F601922F30E3992383
S1130BF019F031939150FBCFC20ED11C20E09F2DF0
S1130C00940F3A81782F7071A72E84FF03C031337B
S1130C1009F49150191624F4993018F098E001C0A1
S1130C2091E0E42F852F57FF02C0E0E080E06E2FB3
S1130C30782FE0E0F0E0AEE29A2E3A01691A7108EA
S1130C402A01461A570A0B2D10E011950195110936
S1130C506F3F8FEF780729F4D6019C92C601019665
S1130C606C014617570784F0661677066CF47F010B
S1130C70E40CF51CA1E0B0E0AC0FBD1FEA0EFB1EB6
S1130C80D7011196BC9002C090E3B92E615071094E
S1130C903196C60101967C016017710724F0D601D4
S1130CA0BC926C01D5CF6417750741F4363320F438
S1130CB0353321F4A11002C081E3B82EF601B082CD
S1130CC0F701822F90E2882319F091938150FBCF92
S1130CD0F701E20FF11D108280E090E029960FB633
S1130CE0F894DEBF0FBECDBFDF91CF911F910F915E
S1130CF0FF90EF90DF90CF90BF90AF909F907F9048
S1130D006F905F904F900895283008F027E03327C4
S1130D10DA01990F311D87FD916000966105710517
S1130D2039F432602E5F3D9330E32A95E1F708955C
S1130D309F3F30F080387105610509F03C5F3C5FEE
S1130D403D93913008F08068911DDF93CF931F93FA
S1130D500F93FF92EF92192F987F9695E92F96950E
S1130D609695E90FFF27EC5EFE4F99273327EE2473
S1130D70FF24A701E70105900894079428F4360F8F
S1130D80E71EF81E491F511D660F771F881F991F04
S1130D900694A1F70590079428F4E70EF81E491F5E
S1130DA0561FC11D770F881F991F661F0694A1F750
S1130DB00590079428F4F80E491F561FC71FD11D2C
S1130DC0880F991F661F771F0694A1F70590079453
S1130DD020F4490F561FC71FD81F990F661F771F8E
S1130DE0881F0694A9F784911095177041F0D69541
S1130DF0C79557954795F794E7941A95C1F7EAEB89
S1130E00F0E0689415901591359165919591059050
S1130E107FE27395E118F10A430B560BC90BD00915
S1130E20C0F7E10CF11E431F561FC91FD01D7EF4ED
S1130E30703311F48A95E6CFE894015030F0080F2E
S1130E400AF40027021708F4202F2395022F7A337F
S1130E5028F079E37D932A95E9F710C07D932A95CC
S1130E6089F6069497956795379517951794E11821
S1130E70F10A430B560BC90BD00998F023957E91C8
S1130E8073957A3308F070E37C932013B8F77E915E
S1130E9070617D9330F0839571E37D9370E32A95BF
S1130EA0E1F71124EF90FF900F911F91CF91DF9103
S1130EB0992787FD90950895DC01FC01672F7191B6
S1130EC07723E1F7329704C07C916D93708362912C
S10F0ED0AE17BF07C8F30895F894FFCFD5
S10B0EDC20200020200D0A0073
S9030000FC
