S00D000054493242322E73726563D4
S113000045C0000053C0000063C00000A1C0000050
S11300104DC000004BC0000049C0000047C00000B4
S113002045C0000043C0000041C000003FC00000C4
S11300303DC000003BC0000039C0000037C00000D4
S113004035C0000033C0000031C000002FC00000E4
S11300502DC000002BC0000029C0000027C00000F4
S113006025C0000023C0000021C000001FC0000004
S11300701DC000001BC0000019C0000017C0000014
S113008015C0000013C0000011C0000011241FBEE1
S1130090CFEFD0E1DEBFCDBF21E0A0E0B1E001C0F1
S11300A01D92A230B207E1F79DD0ABC0A9CF1816BC
S11300B019066CF420E030E0E9EFF0E03197F1F755
S11300C000C000002F5F3F4F28173907A9F7089594
S11300D01F920F920FB60F9211240BB60F922F930B
S11300E03F934F935F936F937F938F939F93AF93BC
S11300F0BF93EF93FF938091000190910101880FCA
S1130100991F813891052CF490930101809300018B
S113011006C081E090E090930101809300018091FA
S1130120000188BB84EF91E0C2DFFF91EF91BF91A2
S1130130AF919F918F917F916F915F914F913F917B
S11301402F910F900BBE0F900FBE0F901F9018951C
S11301501F920F920FB60F9211240BB60F922F938A
S11301603F934F935F936F937F938F939F93AF933B
S1130170BF93EF93FF938091000190910101880F49
S1130180991F813891052CF490930101809300010B
S113019006C081E090E0909301018093000180917A
S11301A0000188BB84EF91E082DFFF91EF91BF9162
S11301B0AF919F918F917F916F915F914F913F91FB
S11301C02F910F900BBE0F900FBE0F901F9018959C
S11301D0EAE6F0E080818FEF808389B7866089BF8B
S11301E07894089581E090E0909301018093000158
S11301F08FEF87BB80EF81BB8091000188BBE8DF74
S1090200FFCFF894FFCFCC
S9030000FC
