:1000000045C0000060C000005EC000005CC0000091
:100010005AC000006AC000009AC0000054C000002E
:1000200052C0000050C000004EC000004CC0000094
:100030004AC0000048C0000046C0000044C00000A4
:1000400042C0000040C000003EC000003CC00000B4
:100050003AC0000038C0000036C0000034C00000C4
:1000600032C0000030C000002EC000002CC00000D4
:100070002AC0000028C0000026C0000024C00000E4
:1000800022C0000020C000001EC0000011241FBEBE
:10009000CFEFD0E1DEBFCDBF11E0A0E0B1E0E8EFEF
:1000A000F1E000E00BBF02C007900D92A031B10754
:1000B000D9F721E0A0E1B1E001C01D92A231B20761
:1000C000E1F777D097C09CCF181619066CF420E0A2
:1000D00030E0E9EFF0E03197F1F700C000002F5F6A
:1000E0003F4F28173907A9F708951F920F920FB6AF
:1000F0000F9211240BB60F922F933F934F935F9360
:100100006F937F938F939F93AF93BF93EF93FF93DF
:1001100080911001909111010196909311018093AB
:10012000100184E690E0D0DFFF91EF91BF91AF9195
:100130009F918F917F916F915F914F913F912F91FF
:100140000F900BBE0F900FBE0F901F9018951F922F
:100150000F920FB60F9211240BB60F922F933F936D
:100160004F935F936F937F938F939F93AF93BF93BF
:10017000EF93FF938091100190911101019790935B
:1001800011018093100184E690E09EDFFF91EF91D2
:10019000BF91AF919F918F917F916F915F914F919F
:1001A0003F912F910F900BBE0F900FBE0F901F909D
:1001B000189510921101109210018FEF81BB12B8A7
:1001C0008AB78A608ABF89B7806389BF7894C9E794
:1001D00080911001909111018031910510F0C2BB06
:1001E00005C0FC01E050FF4F808182BB88EE93E0A8
:0801F0006BDFEECFF894FFCFA6
:1001F8003F065B4F666D7D077F6F777C395E79714F
:00000001FF
