:1000000045C0000058C0000056C0000054C00000A9
:1000100052C0000050C000004EC000004CC00000A4
:100020004AC0000048C0000046C0000044C00000B4
:1000300042C0000040C000003EC000003CC00000C4
:1000400061C0000038C0000036C0000034C00000AD
:1000500032C0000030C000002EC000002CC00000E4
:100060002AC0000028C0000026C0000024C00000F4
:1000700022C0000020C000001EC000001CC0000004
:100080001AC0000018C0000016C0000011241FBED6
:10009000CFEFD0E1DEBFCDBF11E0A0E0B1E0E6E5FB
:1000A000F1E000E00BBF02C007900D92A230B10753
:1000B000D9F713D04EC0A4CF181619066CF420E05F
:1000C00030E0E9EFF0E03197F1F700C000002F5F7A
:1000D0003F4F28173907A9F708958FEF81BB80E1BB
:1000E00085BBD0E8C0E4D2BBC2BB80910001909137
:1000F0000101E2DFC2BBD2BB8091000190910101FE
:10010000DBDFF1CF1F920F920FB60F9211242F93C6
:100110008F939F93989B15C080910001909101014E
:10012000803A2FE092073CF4880F991F90930101C9
:100130008093000106C084EF91E0909301018093C9
:1001400000019F918F912F910F900FBE0F901F90E4
:060150001895F894FFCFA2
:02015600F401B2
:00000001FF
