:1000000045C000004BC0000049C0000047C00000D0
:1000100045C0000043C0000041C000003FC00000D8
:100020003DC000003BC0000039C0000037C00000E8
:1000300035C0000033C0000031C000002FC00000F8
:100040002DC000002BC0000029C0000027C0000008
:1000500025C0000023C0000021C000001FC0000018
:100060001DC000001BC0000019C0000017C0000028
:1000700015C0000013C0000011C000000FC0000038
:100080000DC000000BC0000009C0000011241FBEFD
:10009000CFEFD0E1DEBFCDBF31D04BC0B1CF10929A
:1000A000710080E280937000089584EA8093740068
:1000B000E4E7F0E080818823ECF7089584E98093F9
:1000C000740008958093730084E880937400E4E7DB
:1000D000F0E080818823ECF708958FEF87BB8AEAF0
:1000E00088BBE3DF80EEEEDF84E0ECDF8FEAEADF5F
:1000F00080E0E8DF85E5E6DFE1CF0895D0DFD5DFFA
:1001000080EEE0DF81E2DEDFD9DFCFDF80EEDADF15
:1001100080EAD8DFD3DFC9DF80EED4DF83EED2DF21
:10012000CDDFC3DF80EECEDF81E8CCDFC7DFD5DFF8
:06013000FECFF894FFCFA2
:00000001FF
