:1000000045C000004BC0000049C0000047C00000D0
:1000100045C0000043C0000041C000003FC00000D8
:100020003DC000003BC0000039C0000037C00000E8
:1000300035C0000033C0000031C000002FC00000F8
:100040002DC000002BC0000029C0000027C0000008
:1000500025C0000023C0000021C000001FC0000018
:100060001DC000001BC0000019C0000017C0000028
:1000700015C0000013C0000011C000000FC0000038
:100080000DC000000BC0000009C0000011241FBEFD
:10009000CFEFD0E1DEBFCDBF29D04BC0B1CF1092A2
:1000A000710080E280937000089584EA8093740068
:1000B000E4E7F0E080818823ECF7089584E98093F9
:1000C000740008958093730084E880937400E4E7DB
:1000D000F0E080818823ECF70895E7DF8EE0F2DF1F
:1000E00082E0F0DF8FEFEEDFE9CF0895D8DFDDDFCC
:1000F00080EEE8DF81E2E6DFE1DFD7DF80EEE2DFFE
:1001000080EAE0DFDBDFD1DF80EEDCDF83EEDADF09
:10011000D5DFCBDF80EED6DF81E8D4DFCFDFDDDFD8
:10012000C4DF80EECFDF80E0CDDF84E0CBDFC6DF51
:06013000F7CFF894FFCFA9
:00000001FF
