:1000000045C0000060C000005EC000005CC0000091
:100010005AC0000058C0000056C0000054C0000084
:1000200052C0000050C000004EC000004CC0000094
:100030004AC0000048C0000046C0000044C00000A4
:1000400042C0000040C000003EC000003CC00000B4
:100050003AC0000038C0000036C0000034C00000C4
:1000600032C0000030C000002EC000002CC00000D4
:100070002AC0000028C0000026C0000024C00000E4
:1000800022C0000020C000001EC0000011241FBEBE
:10009000CFEFD0E1DEBFCDBF11E0A0E0B1E0E8ECF2
:1000A000F2E000E00BBF02C007900D92A037B1074D
:1000B000D9F721E0A0E7B1E001C01D92A237B20755
:1000C000E1F7D3D0FFC09CCF84EA80937400E4E7CB
:1000D000F0E080818823ECF7089584E98093740030
:1000E00008958093730084E880937400E4E7F0E05F
:1000F00080818823ECF70895181619066CF420E027
:1001000030E0E9EFF0E03197F1F700C000002F5F39
:100110003F4F28173907A9F708951F93CF93DF930F
:100120001092710080E280937000CEDF80EED9DF04
:1001300081E2D7DFC4E7D0E014E91883C5DF80EEA1
:10014000D0DF80EACEDF1883BFDF80EECADF83EE28
:10015000C8DF1883B9DF80EEC4DF81E8C2DF18830F
:1001600088EE93E0C9DFDF91CF911F9108950F933F
:100170001F93CF93DF938C01A7DF80EEB2DFE801FE
:1001800021960F5E1F4FFE0131978081AADF888183
:10019000A8DF2296C017D107B1F79FDFDF91CF917B
:1001A0001F910F9108950F931F93CF93DF938C01AD
:1001B0008BDF80EE96DFE80121960F5E1F4FFE0178
:1001C000319780818EDF88818CDF2296C017D1071E
:1001D000B1F783DFDF91CF911F910F910895CF93F6
:1001E000DF9372DF80EE7DDFC0E0D0E0E091700150
:1001F000F0917101EE0FFF1FEE0FFF1FEE0FFF1FBB
:10020000EC0FFD1FEE0FFF1FE050FF4F808169DFF5
:10021000E0917001F0917101EE0FFF1FEE0FFF1FD3
:10022000EE0FFF1FEC0FFD1FEE0FFF1FE050FF4F03
:10023000818157DF2196C830D105C1F680917001C8
:10024000909171010196853091052CF49093710184
:100250008093700106C083E090E0909371018093D9
:1002600070013BDFDF91CF91089557DF2DDF80EEE6
:1002700038DF80E036DFC0E1D0E080E032DF219778
:10028000E1F72BDF1ABA10927101109270018EEE15
:1002900092E032DFC89B04C080E591E068DFF7CFD1
:1002A000C99B02C09CDFF3CFCA9B04C080E691E0EB
:1002B0007ADFEDCF80E691E05ADF10927101109263
:0802C0007001E5CFF894FFCFB7
:1002C800000002000400060008000A000C000E00EE
:1002D800000002000400060C080C0A000C000E00C6
:1002E80000000200041E061208120A1E0C000E006E
:1002F8000000023F0421062D082D0A210C3F0E00A4
:1003080000FF02C004DE06D208D20ADE0CC00EFFCF
:10031800001E022104D206C408C40AD20C210E1EF3
:10032800001E022104D406C208C20AD40C210E1EE3
:00000001FF
