S01300004D696E6970726F6A6563742E737265638D
S113000045C0000058C0000056C0000054C00000A5
S113001052C0000050C000004EC000004CC00000A0
S11300204AC0000048C0000046C0000044C00000B0
S113003042C0000040C000003EC000003CC00000C0
S11300403AC0000038C0000036C0000034C00000D0
S113005032C0000030C000002EC000002CC00000E0
S11300602AC0000028C0000026C0000024C00000F0
S113007022C0000020C000001EC000001CC0000000
S11300801AC0000018C0000016C0000011241FBED2
S1130090CFEFD0E1DEBFCDBF11E0A0E0B1E0E6EBF1
S11300A0F1E000E00BBF02C007900D92A031B10750
S11300B0D9F76DD07EC0A4CF84EA80937400E4E7BE
S11300C0F0E080818823ECF7089584E9809374003C
S11300D008958093730084E880937400E4E7F0E06B
S11300E080818823ECF708951F93CF93DF931092B8
S11300F0710080E280937000DFDF80EEEADF81E24E
S1130100E8DFC4E7D0E014E91883D6DF80EEE1DF4E
S113011080EADFDF1883D0DF80EEDBDF83EED9DF18
S11301201883CADF80EED5DF81E8D3DF1883DF913F
S1130130CF911F910895181619066CF420E030E051
S1130140E9EFF0E03197F1F700C000002F5F3F4F77
S113015028173907A9F708950F931F93CF93DF93B7
S1130160ABDF80EEB6DFC1E0D1E001E111E0FE01DA
S113017031978081AEDF8881ACDF2296C017D1072A
S1130180B1F7A3DFDF91CF911F910F910895ACDFF9
S113019093DF80EE9EDF80E09CDFC0E1D0E080E072
S11301A098DF2197E1F791DFD7DF84EF91E0C3DF98
S10901B0FCCFF894FFCF20
S11301B6001E022104D406C208C20AD40C210E1E53
S9030000FC
