S0110000536F6D657468696E672E7372656365
S113000045C000004BC0000049C0000047C00000CC
S113001045C0000043C0000041C000003FC00000D4
S11300203DC000003BC0000039C0000037C00000E4
S113003035C0000033C0000031C000002FC00000F4
S11300402DC000002BC0000029C0000027C0000004
S113005025C0000023C0000021C000001FC0000014
S11300601DC000001BC0000019C0000017C0000024
S113007015C0000013C0000011C000000FC0000034
S11300800DC000000BC0000009C0000011241FBEF9
S1130090CFEFD0E1DEBFCDBF4AD072C0B1CF109256
S11300A0710080E280937000089584EA8093740064
S11300B0E4E7F0E080818823ECF7089584E98093F5
S11300C0740008958093730084E880937400E4E7D7
S11300D0F0E080818823ECF708950F931F93CF936A
S11300E0DF93C0E004E710E0D4E9DFDF8EE0EADF6D
S11300F08C2FE8DF80E0E6DFF801D083CE5FC031EB
S1130100A1F7DF91CF911F910F9108951816190649
S11301106CF420E030E0E9EFF0E03197F1F700C053
S113012000002F5F3F4F28173907A9F70895B7DF5D
S1130130BCDF80EEC7DF81E2C5DFC0DFB6DF80EE63
S1130140C1DF80EABFDFBADFB0DF80EEBBDF83EE62
S1130150B9DFB4DFAADF80EEB5DF81E8B3DFAEDF5D
S1130160BCDF84EF91E0D2DFA0DF80EEABDF80E084
S1130170A9DF88E0A7DFA2DF84EF91E0C7DFF0CF3B
S1070180F894FFCF1D
S9030000FC
